:10000000E7C0000001C10000FFC00000FDC000000B
:10001000FBC00000F9C00000F7C00000F5C0000000
:10002000F3C00000F1C000000C94130F0C94DF0F1C
:10003000EBC00000E9C00000E7C00000E5C0000020
:10004000E3C00000E1C00000DFC00000DDC0000030
:10005000DBC00000D9C00000D7C00000D5C0000040
:10006000D3C00000D1C00000CFC00000CDC0000050
:10007000CBC00000C9C00000C7C00000C5C0000060
:10008000C3C00000C1C00000BFC00000BDC0000070
:10009000BBC00000B9C00000B7C00000B5C0000080
:1000A000B3C00000B1C00000AFC000004210641037
:1000B0004A1164104A11A610C8104A111B112D11C3
:1000C0002403430044004300200061006E006400EC
:1000D00020004400690067006900740069007A002C
:1000E000650072000000240349006E007400650082
:1000F0006C006C006900670065006E0074002000F1
:100100004100670065006E007400000004030904EC
:1001100009025F00030100C07D080B00020202011A
:10012000000904000001020201000524001001047E
:100130002402060524060001070582030800FF09C2
:10014000040100020A000000070504021000050770
:1001500005830210000509040200010300000009E4
:100160002111010001224E0007058103080005123C
:1001700001100100000008EB03182101000102DC5E
:1001800001050D0904A1010922A10209421500255A
:10019000017501950181020932810295068101757F
:1001A0000895010930810209518102095581020532
:1001B0000126FF0F7510550E653309303500465B7B
:1001C000048102468A0326000409318102C0C0006E
:1001D00011241FBECFEFDAE0DEBFCDBF15E0A0E0F7
:1001E000B1E0E8E0F3E302C005900D92AC38B1074E
:1001F000D9F716E0ACE8B5E001C01D92A63AB10708
:10020000E1F787D10C948219FBCE279A2F98089595
:1002100095B19F77982B95B90895CF93C82F8A30C1
:1002200029F46DE08EE191E00E94A4116C2F8EE123
:1002300091E00E94A41180E090E0CF910895CF93C7
:1002400084B7877F84BF88E10FB6F89480936000FD
:10025000109260000FBE90E080E80FB6F894809393
:100260006100909361000FBE80E09FD28FE39CE914
:100270000197F1F700C000000E94F60E3CD20097F3
:1002800061F09F938F9384E491E09F938F930E94FA
:100290009F160F900F900F900F900E94300C0097B8
:1002A00061F19F938F9383E591E09F938F930E94D9
:1002B0009F16ABDF2F9A9FEF21EE84E091502040F4
:1002C0008040E1F700C000002F989FEF21EE84E00E
:1002D000915020408040E1F700C000002F9A9FEF2E
:1002E00021EE84E0915020408040E1F700C0000002
:1002F0002F980F900F900F900F903F9A479A259A42
:100300002D9A8AB18C7F8AB98AB18A7F8AB9C0E076
:100310008C2F4BD28FE39CE90197F1F700C00000CE
:10032000CF5FCF3FA9F7CF9170CF68E671E089E248
:1003300096E00E948016892B11F4DDD14CC067E74E
:1003400071E089E296E00E948016892B11F41CD29C
:1003500042C04EE050E067E871E089E296E00E941A
:100360008916892B79F487E396E00E9446168F3F21
:10037000910509F010F419D22EC09F938F9386E94E
:1003800091E010C06EEE72E089E296E00E94801665
:10039000892B89F40E94300C0097E9F09F938F938A
:1003A00083E591E09F938F930E949F160F900F908B
:1003B0000F900F9010C087EC91E00E94B51686ED6B
:1003C00091E00E94B51688EE91E00E94B5168FEF7D
:1003D00091E00E94B51684E192E00E94B5168EE38A
:1003E00090E00E94B01680E090E00895CF93DF93F4
:1003F0008FB7F89420911706309118068FBF80911F
:100400001506909116062817390741F18EE191E003
:100410000E940F1297FD22C0EDE0F6E0A081B181AD
:100420008C93208131812F5F3F4F31832083468120
:1004300057812417350721F42481358131832083A6
:100440009FB7F894228533852F5F3F4F33872287EC
:100450009FBF682F8EE191E00E94A411CDE0D6E00D
:100460002FB7F89480911706909118062FBF892B0B
:1004700009F44CC0FE01A281B3814D91B383A283E4
:1004800086819781A817B90721F484819581938388
:1004900082832FB7F894828593850197938782870B
:1004A0002FBF242F30E080912706909128062A3014
:1004B000310519F02D303105E9F4181619066CF4E0
:1004C0000197FC01E75DF94F20812A3011F02D30B2
:1004D00021F49093280680932706E0912706F09157
:1004E0002806E75DF94F108220DF1092280610924F
:1004F0002706B6CF9C012F5F3F4F309328062093ED
:100500002706FC01E75DF94F4083AACFDF91CF9129
:10051000089580E091E09093A3068093A2068FDE79
:10052000EDE0F6E02FB7F8948DE895E091838083B5
:1005300093838283958384838DE096E0978386837B
:1005400080E890E091878087138612862FBF80E035
:100550005FDE78944BDF8EE191E00E94F9118EE02E
:1005600091E00E9438140E946311F4CF80E850CECD
:1005700080E04ECECF938EE091E00E942514C82FEC
:100580008EE191E00E947F119091E200946090933F
:10059000E200882321F0CC2311F080E801C080E044
:1005A000CF9136CE8EE191E00E9445128EE091E02F
:1005B0000C94F51280911C0190911D01009729F077
:1005C000019790931D0180931C0108950F931F9331
:1005D000CF93DF93C901E801BBD6892B19F01982AB
:1005E000188204C088E090E09983888381E0DF91DD
:1005F000CF911F910F9108950895292F332723300C
:100600003105B9F05CF42130310569F12230310552
:1006100079F58FE590E020E131E02EC021323105FF
:10062000E9F02232310521F58EE490E021E831E055
:1006300023C099278130910541F08230910541F026
:10064000892BB1F4ECE0F1E005C0E6EEF0E002C089
:10065000E0ECF0E0849190E09F010EC089E090E032
:100660002FE531E009C082E190E02FE631E004C0DF
:1006700080E090E020E030E0FA01318320830895AB
:1006800028980895289A0895CF93DF9300D01F9259
:10069000CDB7DEB7442339F04B836A838983F0DF1B
:1006A00089816A814B81882311F02A9A01C02A9896
:1006B0002998299A87E090E070E09B01082E02C0FB
:1006C000359527950A94E2F720FF02C02A9A01C0C7
:1006D0002A982998299A019780F7442331F00F909E
:1006E0000F900F90DF91CF91CDCF0F900F900F9083
:1006F000DF91CF910895209A219A229A2398249AE3
:100700003F9A569A6E9A579A769A2FEF81EE94E016
:10071000215080409040E1F700C0000076988FE9BA
:100720009FE00197F1F700C00000769A8FEB9DE5FE
:100730000197F1F700C0000041E061E180E0A4DF33
:100740009FEF2EE585E0915020408040E1F700C00A
:10075000000041E069E280E097DF92DF40E06AE379
:1007600080E092DF40E060E781E08EDF8BDF88DFB2
:1007700040E066E380E088DF40E060E081E084DF25
:1007800081DF80E090E0089541E068E280E07CDF76
:100790002FEF8EE595E0215080409040E1F700C0BA
:1007A000000041E060E180E06FCF99E09093C100EC
:1007B0009093C2001092C3001092C4009FEF9093D8
:1007C000D10080958093D2000895FB012081FC0127
:1007D000EC59FF4F3081231738F0FC01EB59FF4FE4
:1007E00081E09081921708F480E0817008958C3246
:1007F0009105E0F48832910588F58531910560F422
:100800008231910558F58630910550F18A30910575
:1008100028F10F9729F522C08631910508F18A3118
:100820009105E0F04B970297D8F418C08A339105F0
:1008300060F48733910590F48E32910588F081330E
:10084000910560F0C49761F409C08D33910540F0C3
:100850008F33910518F08134910511F481E00895EA
:1008600080E008950F931F93CF93DF93EC018C01E9
:100870000C5B1F4FF801808191810E94B715F80130
:1008800011821082FE01ED59FF4F1082FE01EC59DA
:10089000FF4F1082CB59DF4F1882DF91CF911F910C
:1008A0000F9108950F931F9350E0522B8A0120E07F
:1008B00030E0660F771F881F991F06271727282704
:1008C000392730FF03C08BE108272058C901B80140
:1008D00099271F910F910895CF92DF92EF92FF9287
:1008E0000F931F93CF93DF938A017901C0E0D0E08B
:1008F000690121E0C21AD108CC15DD0540F4F801E8
:10090000EC0FFD1F21814081CDDF2296F5CFCE1562
:10091000DF0568F4C00FD11F20E04881DF91CF913F
:100920001F910F91FF90EF90DF90CF90BBCFDF91A1
:10093000CF911F910F91FF90EF90DF90CF9008958E
:10094000CF92DF92EF92FF920F931F93CF93DF939B
:100950008C01FC01E45BFF4FC08086E0C89E600113
:100960001124760197E0E90EF11CC7010E941F15C2
:10097000EC01009709F445C0F801EA5BFF4F87E0FE
:10098000DE0101900D928A95E1F7F801EC5BFF4FD3
:1009900060817181A601CE0107960E9470169701B1
:1009A000AE0160E070E0CB0197DFF801E75AFF4F3E
:1009B00000811181228133816017710782079307BB
:1009C000C9F09F938F937F936F933F932F931F93C0
:1009D0000F9380E292E09F938F930E949F168DB7B2
:1009E0009EB70A960FB6F8949EBF0FBE8DBF0AEE53
:1009F0001FEF02C000E010E0CE010E94B715C80151
:100A000002C084EF9FEFDF91CF911F910F91FF9074
:100A1000EF90DF90CF900895CF93DF93FC01E45BDC
:100A2000FF4FA081B0E040E050E020E030E0EC017A
:100A3000CC5BDF4F2A173B0764F4E881F981E40FB0
:100A4000F51F4A5F5F4F7081761751F02F5F3F4F60
:100A5000F1CF80E592E00E94B51680E090E001C001
:100A6000CF01DF91CF9108954F925F926F927F9265
:100A70008F929F92AF92BF92CF92DF92EF92FF92AE
:100A80000F931F93CF93DF931F92CDB7DEB72C0147
:100A9000FB01C1808481982F92959F70E28020E1B4
:100AA000E29E70011124E92A8F70038130E1039FD7
:100AB00080011124082BD201AF5ABF4F8D919C9118
:100AC0008115944020F4F594E794F594E794D201CD
:100AD000AD5ABF4F8D919C918115944020F415958E
:100AE0000795159507956580D6802781822E859478
:100AF000859485948594882D992787FD9095B0E1FC
:100B00002B9F90011124722E759475947594759491
:100B1000272D332727FD3095C0FE03C0A5E59A2E6B
:100B200002C0FEE29F2EC1FE03C0E3E5AE2E02C06E
:100B30007EE2A72EC2FE02C0B1E401C0BEE2C3FE47
:100B400002C0A6E501C0AEE2C4FE02C0FDE401C0E1
:100B5000FEE2C5FE02C0E2E501C0EEE26C2D60746B
:100B6000B62EC6FE02C070E501C07EE2C7FE02C01E
:100B700064E401C06EE23F937F929F938F921F9235
:100B8000DF921F926F921F930F93FF92EF921F922B
:100B90009F921F92AF921F92BF931F92AF931F928B
:100BA000FF931F92EF931F927F931F926F935F9318
:100BB0004F9384E692E09F938F9349830E949F1600
:100BC000D201ED91FC9181E00FB6F894DEBF0FBE2B
:100BD000CDBF4981B11080E08083D201ED91FC91BD
:100BE0009081C7FE02C080E001C083E0892B808332
:100BF000D201ED91FC911197D182ED91FC91119769
:100C00004283ED91FC9111978AE08383ED91FC91F1
:100C10001197F582E482ED91FC91178306830F9082
:100C2000DF91CF911F910F91FF90EF90DF90CF90C8
:100C3000BF90AF909F908F907F906F905F904F90FC
:100C400008951092B9008CE08093B80084E08093FE
:100C5000BC00089584EA8093BC008091BC0087FFAB
:100C6000FCCF08958093BB0084E88093BC00809102
:100C7000BC0087FFFCCF0895EF92FF920F931F9364
:100C8000CF93DF93C82F8B017A01E4DF2091B90065
:100C9000287F30E02830310591F584E9E3DF2091A9
:100CA000B900287F30E02831310549F58C2FDADF93
:100CB0002091B900287F30E02832310501F580E02D
:100CC000D1DF2091B900287F30E028323105B9F416
:100CD000E801CE01801B910B8E159F0554F489917C
:100CE000C1DF2091B900287F30E02832310589F337
:100CF00006C084E98093BC0080E090E001C0C90197
:100D0000DF91CF911F910F91FF90EF900895CF93B6
:100D1000DF939A01AB01B901AFDFEC01009761F0FD
:100D2000DF93CF938CEA92E09F938F930E949F165C
:100D30000F900F900F900F90CE01DF91CF910895FB
:100D40004F925F926F927F928F929F92AF92BF92DB
:100D5000CF92DF92EF92FF920F931F93CF93DF9387
:100D6000FC01EE5BFF4F00811181F8012081318190
:100D7000232B79F0C12CD12CE12CF12C412C512CBE
:100D80005C01FCE4AF0EB11C4C0124E4820E911C0A
:100D900017C08CEC92E00E94B51648C0F401C081E7
:100DA000D181CC0DDD1D888190E021DD81110FC046
:100DB0003201FFEFEF1AFF0A26E0C20ED11C230119
:100DC000F501808190E0E816F90644F32FC02C81EC
:100DD00030E02F5F3F4F8B8190E00196289FB0015C
:100DE000299F700D389F700D11243201660E771EF9
:100DF000F801828193818615970538F483EF92E09C
:100E00000E94B5168AEE9FEF13C0F8014081518110
:100E1000440D551D89819A817ADFEC01009749F2D2
:100E20008BE093E00E94B516CE0102C080E090E016
:100E3000DF91CF911F910F91FF90EF90DF90CF90B6
:100E4000BF90AF909F908F907F906F905F904F90EA
:100E500008950F93CF93DF9300D0CDB7DEB72A83E9
:100E60004983DADDFC012A814981009739F130E0BC
:100E7000638170E06F5F7F4F26173707F8F4A42F68
:100E8000B0E0848190E00196A817B907B8F4402F2C
:100E900050E081819281820F931F6A9F90016B9F26
:100EA000300D7A9F300D112461E070E0820F931FA6
:100EB0000F900F90DF91CF910F9129CF8AEE9FEF86
:100EC0000F900F90DF91CF910F9108950F93022F04
:100ED000242F40E0BEDF0F9108950F931F93CF930F
:100EE000DF93EC01FC01EE5BFF4F0081118128DFF5
:100EF000009709F081C0F801248143E069E0CE0148
:100F0000E5DFF801268144E069E0CE01DFDFF8018A
:100F1000248949E069E0CE01D9DFF801248546E063
:100F200069E0CE01D3DFF801268547E069E0CE0114
:100F3000CDDFF8012085215042E169E0CE01C6DF16
:100F4000F801808591850197292F43E169E0CE0161
:100F5000BDDFF8012285215044E169E0CE01B6DF12
:100F6000F801828593850197292F45E169E0CE013B
:100F7000ADDFF80100891189228933890115110536
:100F80002105310539F1003EF2E31F07F9E22F0791
:100F9000310580F460EE72E389E290E0601B710B32
:100FA000820B930B20E137E240E050E00E94F714FF
:100FB00021950CC0C901B801605E72438942910954
:100FC00020E137E240E050E00E94F71445E06CE198
:100FD000CE017CDF25E541E066E0CE0177DF0097BA
:100FE00059F42FEF8EE29DE0215080409040E1F7D0
:100FF00000C0000080E090E0DF91CF911F910F9141
:101000000895882311F084EC01C084E88093BC002B
:101010008091BC0087FFFCCF8091BB000895EF92C8
:10102000FF920F931F93CF93DF93182FEB017A0159
:1010300011DE2091B900287F30E02830310509F019
:1010400048C084E90FDE2091B900287F30E02831C4
:10105000310509F03EC0812F05DE2091B900287FBF
:1010600030E028323105A9F580E0FCDD2091B9009F
:10107000287F30E02832310561F5ECDD2091B900A0
:10108000287F30E02031310521F585E9EBDD209125
:10109000B900287F30E020343105D9F48E0181E099
:1010A000E81AF108C8018C1B9D0B8E159F0534F4BE
:1010B00081E0A7DFF80181938F01F4CFCE0DDF1D12
:1010C00080E09FDF888384E98093BC0080E090E02B
:1010D00001C0C901DF91CF911F910F91FF90EF9057
:1010E0000895CF92DF92EF92FF920F931F93CF93C9
:1010F000DF93182F092FF62EE72ED42EC52E462F5C
:10110000572F6D2D7C2D8BDFEC010097B1F0DF9315
:10111000CF93CF92DF92EF92FF920F931F9382E2D1
:1011200093E09F938F930E949F168DB79EB70A9668
:101130000FB6F8949EBF0FBE8DBFCE01DF91CF9149
:101140001F910F91FF90EF90DF90CF900895AB012A
:1011500089599F4F61E070E0FC0180819181C1CF8E
:1011600028E0629FB00111248F599F4FFC018081BC
:101170009181B7CF2F923F924F925F926F927F9261
:101180008F929F92AF92BF92CF92DF92EF92FF9297
:101190000F931F93CF93DF9300D01F92CDB7DEB78D
:1011A0009B838A83D62EC42E88E0689F1001112469
:1011B000C1010E941F157C01009709F471C0AC01A8
:1011C0006D2D8A819B81CCDF8C01009789F01F9364
:1011D0008F931F92DF9281E593E09F938F930E94FC
:1011E0009F160F900F900F900F900F900F9053C07D
:1011F000CC2009F450C067012E0C3F1C6A807B8014
:1012000093E6690E711CAA80BB80A4E6AA0EB11CED
:101210008A809B80BDE58B0E911CC214D304D8F547
:10122000F6014081D3018C91481320C04181518443
:10123000412C8581968184299529A0E0B0E0F401B4
:1012400080839183A283B3831F921F929F938F9376
:101250001F924F93A3E7B3E0BF93AF930E949F16F3
:101260000FB6F894DEBF0FBECDBF11C0B6018A81A4
:101270009B814983AADA4981882349F050E0D5014E
:101280008C91481B5109B6018A819B81EDDBB8E046
:10129000CB0ED11CC2CFC7010E94B715C80102C036
:1012A00084EF9FEF0F900F900F90DF91CF911F91E0
:1012B0000F91FF90EF90DF90CF90BF90AF909F90F5
:1012C0008F907F906F905F904F903F902F900895F8
:1012D000DF92EF92FF920F931F93CF93DF931F92B2
:1012E000CDB7DEB77C01D62EBE016F5F7F4F2FDFFB
:1012F0008C01009771F01F938F9388E993E09F937F
:101300008F930E949F160F900F900F900F90C8011F
:1013100016C08981882389F01F928F938CEB93E00C
:101320009F938F930E949F164D2D6981C70122DFE5
:101330000F900F900F900F9002C080E090E00F9000
:10134000DF91CF911F910F91FF90EF90DF90089563
:10135000CF93DF93E0918D06F0918E069183808389
:1013600080918D0690918E06FC01E25BFF4F2081FB
:1013700021110FC01F921F9284ED93E09F938F93D2
:101380000E949F160F900F900F900F908FEF9FEF7E
:1013900015C061E09DDFEC01009771F0DF93CF9302
:1013A00088EF93E09F938F930E949F160F900F906A
:1013B0000F900F90CE0102C080E090E0DF91CF91BE
:1013C0000895EF92FF920F931F93CF93DF93CDB7C2
:1013D000DEB727970FB6F894DEBF0FBECDBF8C01E6
:1013E00069E01ADB7C01009709F454C0FC0181819B
:1013F0009281AE014F5F5F4F64E070E0429671DE14
:10140000009709F049C0F70181819281AE01495FDF
:101410005F4F61E070E0099664DE0097E9F5F7013F
:1014200081819281AE014B5F5F4F62E070E0039675
:1014300058DE009789F589819A812B813C814F8103
:10144000D801AF5ABF4FF801ED5AFF4F40FF05C01A
:101450002D933C939183808304C08D939C9331831F
:101460002083F801EB5AFF4F289FA001299F500DC0
:10147000389F500D1124518340839D818E81F80146
:10148000E95AFF4F989FC00111249183808380E027
:1014900090E002C08AEE9FEF27960FB6F894DEBF69
:1014A0000FBECDBFDF91CF911F910F91FF90EF90B5
:1014B00008952F923F924F925F926F927F928F92F8
:1014C0009F92AF92BF92CF92DF92EF92FF920F93D3
:1014D0001F93CF93DF93CDB7DEB769970FB6F8941C
:1014E000DEBF0FBECDBF8C016C018CE4C80ED11CD9
:1014F000D601EC90B6E0EB9E700111245801E4E4B3
:10150000AE0EB11CD5014D915C91B70187E090E022
:10151000E8DD009709F0FEC0AE014F5F5F4F6CE061
:1015200070E0C7010796DDDD009709F0F3C08D81FB
:101530009E81AF81B885BA2FA92F982F882749851A
:101540005A856B857C85BA0155274427842B952BBA
:10155000A62BB72B49815A816B817C81842B952BDB
:10156000A62BB72BF801E75AFF4F80839183A28304
:10157000B383BF93AF939F938F9382E294E09F9343
:101580008F930E949F16C801DBD90F900F900F9088
:101590000F900F900F90009709F0BCC0612C712C38
:1015A00031E0812C912C96E4292E94E0392E21E50E
:1015B000422E24E0522EF801EC59FF4FFE87ED87B2
:1015C000C8018B599F4F988B8F87D801AA59BF4F5D
:1015D000BA8BA98BF801E959FF4FFC8BEB8BC80143
:1015E0008F599F4F9E8B8D8BD801AD59BF4FB88FB0
:1015F000AF8BD6018C9190E0881699060CF088C0CC
:10160000F50100811181060D171DD80115968C91E9
:101610001597882361F014969C91899F800D112461
:10162000830FEE24EA94E80EF32E382F02C0E12C4B
:10163000F12CF80180811F928F933F922F92398F66
:101640000E949F16D80112968C9112978F93119633
:101650008C918F935F924F920E949F16F801838125
:1016600090E001969F938F93ADE5B4E0BF93AF9365
:101670000E949F16D80114968C9190E001969F933A
:101680008F93A8E6B4E0BF93AF930E949F161F927A
:10169000EF921F92FF92A8E7B4E0BF93AF930E942E
:1016A0009F160FB6F894DEBF0FBECDBFD8018C9148
:1016B000398D8930C9F040F4853081F0863009F5E4
:1016C000EF89F88DF0821DC08331A9F08C32C9F406
:1016D000F80181819281AB89BC8911C0F8018181B7
:1016E0009281AD89BE890BC0AD85BE85FC92EF8528
:1016F000F889E08206C0A989BA89FC9202C08D935C
:101700009C93BFEF8B1A9B0AE6E06E0E711C71CFA3
:1017100080E090E069960FB6F894DEBF0FBECDBFB3
:10172000DF91CF911F910F91FF90EF90DF90CF90BD
:10173000BF90AF909F908F907F906F905F904F90F1
:101740003F902F900895AC014A5B5F4F67E070E0D7
:1017500080E090E0C6CCEF92FF920F931F93CF935F
:10176000DF93EC01F0DF009709F073C08E010A5B94
:101770001F4FF8018681F6E08F9FC00111240E945F
:101780001F15FE01EC5BFF4F91838083892B39F499
:101790008DE894E00E94B51684EF9FEF5AC0CE0109
:1017A00088DE7C01009709F051C0CE0196DB7C01F8
:1017B000009709F04BC021E040E066E0CE0186DBF7
:1017C0007C01009709F042C02FEF86E191E12150A2
:1017D00080409040E1F700C00000F80182819381D1
:1017E0001F929F93982F9F701F929F9382958F7047
:1017F0001F928F9381811F928F9380811F928F936D
:1018000087EA94E09F938F930E949F16F801868148
:101810001F928F9385811F928F9384811F928F9344
:1018200083EE94E09F938F930E949F168DB79EB78F
:1018300044960FB6F8949EBF0FBE8DBFCE01DF91C8
:10184000CF911F910F91FF90EF90BBCDCE010AD8A1
:10185000C701DF91CF911F910F91FF90EF900895F5
:10186000CF93DF932698529887E890E00E941F1547
:10187000EC0190938E0680938D06009719F48DE805
:1018800094E009C089E190E00E941F15FC010097D7
:1018900039F487E195E00E94B51684EF9FEF60C0B0
:1018A000DE01A25BBF4F1C9282E190E095838483AE
:1018B0008BE090E09783868380E094E09187808737
:1018C00088E592E09387828781E090E0958784871E
:1018D00088E290E09787868740E859EB6AE270E0FB
:1018E000408B518B628B738B87E0848B42E050E09E
:1018F00060E070E0458B568B678B708F1182108291
:1019000013821282CE5BDF4FF983E8839AD98BE38F
:1019100095E00E94B51680918D0690918E061BDF92
:10192000892B19F082E595E00CC021E043E066E0E8
:1019300080918D0690918E06C9DA892B39F089E65F
:1019400095E00E94B5168BEF9FEF0AC0E0918D06DF
:10195000F0918E06E25BFF4F81E0808380E090E0B3
:10196000DF91CF910895CF92DF92EF92FF920F9384
:101970001F93CF93DF937C018B01EA01C7D18111C3
:1019800030C0209731F088819981081B190BE80E2F
:10199000F91EC12CD12C0115110511F18091E8001F
:1019A00085FD13C08091E8008E778093E800209732
:1019B00041F0888199818C0D9D1D9983888385E0F4
:1019C00010C0A4D1882339F30CC0F70181917F01A5
:1019D0008093F10001501109FFEFCF1ADF0ADBCF2E
:1019E00080E0DF91CF911F910F91FF90EF90DF90FA
:1019F000CF90089520919A0630919B0626173707BD
:101A000048F06115710539F42091E8002E77209394
:101A1000E80001C0B901FC0120E061157105A9F1E0
:101A2000809193068823E9F18530E9F18091E800FF
:101A300083FD35C08091E80082FF06C08091E800F8
:101A400082FF26C080E008958091E80080FFE5CF06
:101A50002091F3008091F20090E0922B61157105C6
:101A600051F08830910538F421912093F1006150B4
:101A700071090196F3CF21E0089709F020E08091E9
:101A8000E8008E778093E800C8CF2111C9CFD6CF68
:101A900080919306882329F0853081F604C081E087
:101AA000089582E0089583E008956115710529F491
:101AB0002091E8002B772093E8006115710541F132
:101AC00020919306222369F1253069F12091E800E5
:101AD00023FD23C02091E80022FFF2CFFC01CF01BB
:101AE0004091F3002091F20030E0342B232B01F3DE
:101AF0008091F1008193CF016150710961157105E9
:101B000071F7D6CF80919306882359F0853059F02C
:101B10008091E80080FFF6CF02C081E0089580E068
:101B2000089582E0089583E0089520919A06309107
:101B30009B062617370748F06115710539F4209187
:101B4000E8002E772093E80001C0B901FC0120E0F5
:101B500061157105C1F180919306882309F43FC096
:101B6000853009F43EC08091E80083FD36C0809145
:101B7000E80082FF06C08091E80082FF27C080E075
:101B800008958091E80080FFE3CF2091F3008091D9
:101B9000F20090E0922B6115710559F088309105A3
:101BA00040F424912093F10031966150710901961F
:101BB000F2CF21E0089709F020E08091E8008E77CD
:101BC0008093E800C5CF2111C6CFD5CF8091930671
:101BD000882329F0853079F604C081E0089582E0F9
:101BE000089583E00895982F973058F59093E90071
:101BF000981739F07091EC002091ED005091F000B1
:101C000003C0242F762F50E021FF19C03091EB0044
:101C10003E7F3093EB003091ED003D7F3093ED003F
:101C20003091EB0031603093EB007093EC00209327
:101C3000ED005093F0002091EE0027FF07C09F5F5A
:101C4000D3CF8F708093E90081E0089580E00895FC
:101C50000F931F93CF93DF93062FEC0110E0101723
:101C600071F19881992341F12C81E981FA817B817D
:101C7000892F8F70873010F080E022C0223010F062
:101C800056E001C052E028E030E040E02E173F0768
:101C900020F44F5F220F331FF9CF4295407F452B31
:101CA000692F661F6627661F90E4799F90011124B3
:101CB000622B99DF882301F31F5F2596D0CF81E047
:101CC000DF91CF911F910F9108958091940687FD28
:101CD00005C08091E80080FF0EC012C08091E8002E
:101CE00082FD05C0809193068111F8CF08958091FF
:101CF000E8008B7708C0809193068111EACF0895A0
:101D00008091E8008E778093E80008958091E40048
:101D10009091E50045E62091EC0020FF21C0209144
:101D2000E80020FD21C020919306222389F0253070
:101D300089F02091EB0025FD0FC02091E400309147
:101D4000E5002817390739F3415041F0C901E3CFC5
:101D500082E0089583E0089581E0089584E0089585
:101D60002091E80022FFDFCF80E008950F931F93BA
:101D7000CF93DF934BD052D0C8EDD0E088818F77DE
:101D8000888388818068888388818F7D888319BC57
:101D90001092930610928F06109291061092900660
:101DA00000EE10E0F80180818B7F80838881816064
:101DB000888342E060E080E016DFE1EEF0E08081C1
:101DC0008E7F8083E2EEF0E080818160808380817D
:101DD00088608083F80180818E7F80838881806124
:101DE0008883DF91CF911F910F910895E8EDF0E086
:101DF00080818F7E8083E7EDF0E080818160808349
:101E000084E082BF81E080939206B0CFE8EDF0E0FD
:101E100080818E7F80831092E20008951092DA0014
:101E20001092E10008951F920F920FB60F921124A5
:101E30002F933F934F935F936F937F938F939F93D2
:101E4000AF93BF93EF93FF938091E10082FF0BC0AC
:101E50008091E20082FF07C08091E1008B7F809338
:101E6000E1000E94DA028091DA0080FF1FC08091B9
:101E7000D80080FF1BC08091DA008E7F8093DA004B
:101E80008091D90080FF0DC080E189BD82E189BDCC
:101E900009B400FEFDCF81E0809393060E94B60254
:101EA00005C019BC109293060E94B8028091E1000F
:101EB00080FF18C08091E20080FF14C08091E20092
:101EC0008E7F8093E2008091E20080618093E20047
:101ED0008091D80080628093D80019BC85E08093FF
:101EE0009306F0D18091E10084FF2DC08091E20043
:101EF00084FF29C080E189BD82E189BD09B400FE6B
:101F0000FDCF8091D8008F7D8093D8008091E10033
:101F10008F7E8093E1008091E2008F7E8093E200CB
:101F20008091E20081608093E20080918F068111B0
:101F300004C08091E30087FF02C084E001C081E01B
:101F400080939306BFD18091E10083FF27C08091E9
:101F5000E20083FF23C08091E100877F8093E1004E
:101F600082E08093930610928F068091E1008E7F2D
:101F70008093E1008091E2008E7F8093E200809167
:101F8000E20080618093E20042E060E080E02BDECE
:101F90008091F00088608093F00094D1FF91EF91E0
:101FA000BF91AF919F918F917F916F915F914F9171
:101FB0003F912F910F900FBE0F901F9018951F9279
:101FC0000F920FB60F9211242F933F934F935F936D
:101FD0006F937F938F939F93AF93BF93CF93EF9321
:101FE000FF93C091E900CF708091EC001092E9005E
:101FF0008091F000877F8093F00078941BD010923E
:10200000E9008091F00088608093F000C093E900BF
:10201000FF91EF91CF91BF91AF919F918F917F9160
:102020006F915F914F913F912F910F900FBE0F9045
:102030001F9018951F93CF93DF93CDB7DEB7AA9764
:102040000FB6F894DEBF0FBECDBFE4E9F6E0809195
:10205000F100819326E0EC39F207C9F70E94D20221
:102060008091E80083FF16C1209194063091950677
:10207000832F90E08A30910508F00CC1FC01EA5AE8
:10208000FF4FD7C4203881F0223809F003C1809176
:1020900098068F708093E9008091EB0085FB88277C
:1020A00080F91092E90006C0809190069091910607
:1020B000911182609091E800977F9093E80080935F
:1020C000F1001092F100C2C0822F8D7F09F0E2C0B2
:1020D000222319F0223061F0DDC080919606813014
:1020E00009F0D8C0333009F080E08093910628C011
:1020F00080919606811124C0209198062F7009F4D2
:10210000C9C02093E9008091EB0080FF19C0809145
:10211000EB00333011F4806211C080618093EB00DA
:1021200081E090E0022E01C0880F0A94EAF78093C4
:10213000EA001092EA008091EB0088608093EB0047
:102140001092E9008091E800877F83C02111A2C02E
:10215000109196061F778091E3008078812B809301
:10216000E3008091E800877F8093E800AEDD8091F6
:10217000E80080FFFCCF8091E30080688093E3005B
:10218000112311F083E001C082E08093930682C0A6
:102190002058223008F07EC08091960690919706D4
:1021A0008C3D23E0920771F583E08A838AE289837C
:1021B0004FB7F894DE01139620E03EE051E2E32FA2
:1021C000F0E050935700E49120FF03C0E295EF70D8
:1021D0003F5FEF708E2F90E0EA3010F0C79601C09D
:1021E000C0968D939D932F5F243149F74FBF809107
:1021F000E800877F8093E8006AE270E0CE010196F4
:10220000F9DB13C0AE014F5F5F4F609198060E94EB
:10221000FD02009709F43EC02091E800277F20933B
:10222000E800BC0189819A8180DC8091E8008B778D
:102230008093E8002FC0203869F58091E800877FFF
:102240008093E80080918F068093F1008091E800F0
:102250008E778093E80039DD1DC021111BC090915D
:1022600096069230B8F48091E800877F8093E8006A
:1022700090938F062ADD80918F06811104C0809192
:10228000E30087FF02C084E001C081E080939306F1
:102290000E94BA028091E80083FF0AC08091E800A2
:1022A000877F8093E8008091EB0080628093EB0051
:1022B000AA960FB6F894DEBF0FBECDBFDF91CF91C7
:1022C0001F9108950895CF93809193068823A9F0D4
:1022D0008091E9008F709091EC0090FF02C090E82F
:1022E00001C090E0C92FC82B1092E9008091E8004E
:1022F00083FDA0DECF70C093E900CF910895CF9306
:10230000DF93EC01FC0170968BE0DF011D928A9552
:10231000E9F782E08C83898783E08E8761E0CE01D4
:10232000019696DC882361F061E0CE01069690DC90
:10233000882331F061E0CE010B96DF91CF9188CCFC
:1023400080E0DF91CF910895CF93C62F209193061F
:102350002430F1F4FC014489558966897789452B3D
:10236000462B472BA9F081818F708093E9008091E3
:10237000E80085FF04C0C093F10080E00AC08091AE
:10238000E8008E778093E800C1DC8823A1F301C0C8
:1023900082E0CF91089520919306243041F5FC010D
:1023A0004489558966897789452B462B472BF9F057
:1023B00081818F708093E9002091F3008091F20079
:1023C00090E0922B892B89F09091E8008091E800B1
:1023D0008E778093E80095FD08C098DC811108C0D5
:1023E0008091E8008E778093E80080E0089582E095
:1023F000089520919306243089F4FC01448955897D
:1024000066897789452B462B472B41F021812F7018
:102410002093E9002091E80020FDBDCF0895209190
:102420009306243019F08FEF9FEF0895FC01448943
:10243000558966897789452B462B472BA1F38681E1
:102440008F708093E9008091E80082FFECCF2091AB
:10245000F3008091F20090E0922B892B21F02091E3
:10246000F10030E002C02FEF3FEF4091F300809188
:10247000F20090E0942B892B29F48091E8008B776F
:102480008093E800C90108950895CF93DF93EC018C
:102490008091E80083FFA6C0888190E02091980693
:1024A000309199062817390709F09CC0809195064C
:1024B000813261F020F4803209F43EC093C0823250
:1024C00009F46CC0833209F47DC08CC080919406FD
:1024D000813A09F087C08091E800877F8093E80007
:1024E0008091E80080FFFCCF4C895D896E897F89EF
:1024F0004093F100BB27A72F962F852F8093F100E3
:10250000CB01AA27BB278093F100472F55276627C9
:1025100077274093F100888D8093F100898D809317
:10252000F1008A8D8093F1008091E8008E7780938E
:10253000E800DF91CF91C9CB80919406813209F0F8
:1025400051C08091E800877F8093E8008091E80087
:1025500082FD05C0809193068111F8CF43C0309170
:10256000F1002091F1009091F1008091F1003C8BFD
:102570002D8B9E8B8F8B8091F100888F8091F10045
:10258000898F8091F1008A8F8091E8008B7780930A
:10259000E8009BDBCE01DF91CF9176CF809194064E
:1025A000813201F58091E800877F8093E8008DDB20
:1025B0008091960690919706998B888BCE01DF913A
:1025C000CF9162CF80919406813261F48091E800CE
:1025D000877F8093E80079DB60919606CE01DF91DA
:1025E000CF9152CFDF91CF9108956F927F928F92CA
:1025F0009F92AF92BF92CF92DF92EF92FF920F9392
:102600001F93CF93DF9300D01F92CDB7DEB77C012D
:10261000ADB6BEB68091E80083FF00C1F7018081AE
:1026200090E020919806309199062817390709F013
:10263000F5C080919506833009F497C030F481305D
:1026400071F0823009F4CEC0E9C08A3009F4B2C01A
:102650008B3009F49BC0893009F0E0C048C08091FC
:102660009406813A09F0DAC08DB69EB61A821982B4
:1026700080919606109197068B83F701408550E074
:102680008DB79EB7841B950B0FB6F8949EBF0FBEF7
:102690008DBFEDB7FEB731966F0160E070E0CF01FE
:1026A00028D34FEF410F8E010F5F1F4F9601BE01E0
:1026B0006D5F7F4FC7010E94E602F7018681978117
:1026C000009721F0408550E0B6010AD31092E9004E
:1026D0008091E800877F8093E80069817A81C60154
:1026E00089D98091E8008B778093E80038C0809189
:1026F0009406813209F092C08DB69EB600919A067A
:1027000010919B0670909606609097068DB79EB7C5
:10271000801B910B0FB6F8949EBF0FBE8DBFEDB717
:10272000FEB731966F018091E800877F8093E800C3
:10273000B801CF01BAD98091E8008E778093E80084
:1027400021E0711001C020E030E0021B130B2C0DC2
:102750003D1D4FEF460D672DC7010E94FC020FB6CD
:10276000F8949EBE0FBE8DBE59C080919406813AEA
:1027700009F054C08091E800877F8093E800809141
:10278000E80080FFFCCFF701818540C0809194066E
:10279000813209F043C08091E800877F8093E80090
:1027A00094DA9091960681E0911101C080E0F701E2
:1027B000818734C080919406813281F58091E80050
:1027C000877F8093E80081DA809196069091970642
:1027D000882736E0969587953A95E1F7F701958732
:1027E00084871CC080919406813AC1F48091E800EE
:1027F000877F8093E8008091E80080FFFCCFF7019D
:102800008485958596958795969587958093F10013
:102810008091E8008E778093E80057DA0FB6F8943D
:10282000BEBE0FBEADBE0F900F900F90DF91CF9147
:102830001F910F91FF90EF90DF90CF90BF90AF90DE
:102840009F908F907F906F900895FC01399627E0BC
:10285000DF011D922A95E9F721E0FC01218724EF91
:1028600031E03587248723E0248361E00196F0C9B5
:102870005F926F927F928F929F92AF92BF92CF9210
:10288000DF92EF92FF920F931F93CF93DF9300D0CD
:102890001F92CDB7DEB77C01ADB6BEB68091930670
:1028A000843009F08CC08091E4009091E500F7013C
:1028B000228533852817390709F481C081818F70FB
:1028C0008093E9008091E80085FF79C08DB69EB6BF
:1028D000408550E08DB79EB7841B950B0FB6F894DA
:1028E0009EBF0FBE8DBFEDB7FEB731966F011B8245
:1028F0001A82198260E070E0CF01FBD18E010F5F78
:102900001F4F960140E0BE016D5F7F4FC7010E94DF
:10291000E602682EF70184859585892B41F021E038
:1029200086859785892B09F020E0722E01C0712CD5
:10293000F701068117810115110589F049815A8136
:10294000B801C601C0D155245394892B09F4512CE8
:10295000F701408550E0B601C801C2D101C0512C39
:1029600029813A81232BF9F0611004C0511002C073
:1029700070FE19C0F70184859585978786878181C8
:102980008F708093E9008B8181118093F1006981C0
:102990007A8140E050E0C6010E94B30C8091E800CB
:1029A0008E778093E8008091E4009091E500F70134
:1029B000938782870FB6F8949EBE0FBE8DBE0FB66A
:1029C000F894BEBE0FBEADBE0F900F900F90DF917A
:1029D000CF911F910F91FF90EF90DF90CF90BF901C
:1029E000AF909F908F907F906F905F900895A1E23D
:1029F0001A2EAA1BBB1BFD010DC0AA1FBB1FEE1F79
:102A0000FF1FA217B307E407F50720F0A21BB30BC3
:102A1000E40BF50B661F771F881F991F1A9469F73F
:102A200060957095809590959B01AC01BD01CF019B
:102A30000895EE0FFF1F0590F491E02D0994CF93B8
:102A4000DF938230910510F482E090E0E0919E06E1
:102A5000F0919F0620E030E0A0E0B0E0309739F13F
:102A60004081518148175907B8F04817590771F448
:102A700082819381109729F013969C938E931297DD
:102A80002CC090939F0680939E0627C02115310588
:102A900031F04217530718F0A901DB0101C0EF0123
:102AA0009A01BD01DF010280F381E02DD7CF21150E
:102AB0003105F9F0281B390B2430310580F48A8167
:102AC0009B816115710521F0FB019383828304C012
:102AD00090939F0680939E06FE01329644C0FE01AD
:102AE000E20FF31F81939193225031093983288398
:102AF0003AC020919C0630919D06232B41F42091F1
:102B000040013091410130939D0620939C06209115
:102B10003E0130913F012115310541F42DB73EB7FB
:102B20004091420150914301241B350BE0919C06DA
:102B3000F0919D06E217F307A0F42E1B3F0B281718
:102B4000390778F0AC014E5F5F4F2417350748F026
:102B50004E0F5F1F50939D0640939C068193919367
:102B600002C0E0E0F0E0CF01DF91CF910895CF9374
:102B7000DF93009709F487C0FC0132971382128219
:102B8000C0919E06D0919F06209781F420813181CB
:102B9000280F391F80919C0690919D0682179307FC
:102BA00079F5F0939D06E0939C066DC0DE0120E070
:102BB00030E0AE17BF0750F412964D915C91139719
:102BC0009D014115510509F1DA01F3CFB383A283C9
:102BD00040815181840F951F8A179B0771F48D9155
:102BE0009C911197840F951F029691838083129672
:102BF0008D919C911397938382832115310529F43C
:102C0000F0939F06E0939E063EC0D9011396FC9375
:102C1000EE9312974D915D91A40FB51FEA17FB0734
:102C200079F480819181840F951F0296D9011196C4
:102C30009C938E938281938113969C938E9312978B
:102C4000E0E0F0E08A819B81009719F0FE01EC0141
:102C5000F9CFCE01029628813981820F931F2091EE
:102C60009C0630919D062817390769F4309729F49E
:102C700010929F0610929E0602C013821282D09379
:102C80009D06C0939C06DF91CF910895FC01882793
:102C90009927E89421912032E9F3293010F02E3061
:102CA000C8F32B3239F02D3231F4689403C03FD091
:102CB000820F911D219120532A30C8F31EF4909564
:102CC00081959F4F0895FB01DC0104C08D91019017
:102CD000801921F441505040C8F7881B990B089582
:102CE000FB01DC0102C001900D9241505040D8F729
:102CF0000895DC0101C06D9341505040E0F7089504
:102D0000FB01DC018D91019080190110D9F3990B21
:102D10000895FB01DC014150504030F08D9101904D
:102D2000801919F40020B9F7881B990B08957AE0EF
:102D3000979F902D879F802D910D11240895A0E0DD
:102D4000B0E0E4EAF6E1B7C2FE0135966191719117
:102D5000AF018091A2069091A30634D0E2E0C7C2F1
:102D60006091A2067091A30606C20F931F93CF93A2
:102D7000DF93E091A206F091A306238121FF1BC0FF
:102D8000EC0100E010E089916091A2067091A30629
:102D9000DB011896ED91FC911997882331F0099584
:102DA000892B89F30FEF1FEFEECF8AE00995892B6E
:102DB00011F4C80102C08FEF9FEFDF91CF911F91F7
:102DC0000F910895ACE0B0E0E7EEF6E164C27C015B
:102DD0006B018A01FC0117821682838181FFB0C1D9
:102DE000CE0101964C01F7019381F60193FD859187
:102DF00093FF81916F01882309F49EC1853239F4D4
:102E000093FD859193FF81916F01853221F4B70184
:102E100090E0B1D1E8CF512C312C20E02032A0F449
:102E20008B3269F030F4803259F0833269F42061DA
:102E30002CC08D3239F0803339F4216026C02260F5
:102E4000246023C0286021C027FD27C030ED380F43
:102E50003A3078F426FF06C0FAE05F9E300D112468
:102E6000532E13C08AE0389E300D1124332E206279
:102E70000CC08E3221F426FD5FC1206406C08C3662
:102E800011F4206802C0883641F4F60193FD859163
:102E900093FF81916F018111C1CF982F9F7D955430
:102EA000933028F40C5F1F4FFFE3F9830DC0833686
:102EB00031F0833771F0833509F057C021C0F80134
:102EC000808189830E5F1F4F44244394512C540109
:102ED00014C03801F2E06F0E711CF801A080B180BF
:102EE00026FF03C0652D70E002C06FEF7FEFC501C4
:102EF0002C8736D12C0183012C852F77222E16C0EA
:102F00003801F2E06F0E711CF801A080B18026FF3D
:102F100003C0652D70E002C06FEF7FEFC5012C8705
:102F200014D12C012C852068222E830123FC19C08A
:102F3000832D90E048165906A0F4B70180E290E096
:102F40001AD13A94F5CFF50127FC859127FE81919E
:102F50005F01B70190E00FD131103A94F1E04F1AC0
:102F600051084114510479F7DEC0843611F08936D6
:102F700031F5F80127FF07C060817181828193815B
:102F80000C5F1F4F08C060817181882777FD809595
:102F9000982F0E5F1F4F2F76B22E97FF09C0909586
:102FA0008095709561957F4F8F4F9F4F2068B22E0F
:102FB0002AE030E0A40111D1A82EA81843C085371B
:102FC00029F42F7EB22E2AE030E025C0F22FF97FBF
:102FD000BF2E8F36C1F018F4883579F0ADC0803738
:102FE00019F0883721F0A8C02F2F2061B22EB4FE2F
:102FF0000DC08B2D8460B82E09C024FF0AC09F2FFE
:103000009660B92E06C028E030E005C020E130E02F
:1030100002C020E132E0F801B7FE07C06081718193
:10302000828193810C5F1F4F06C06081718180E0B7
:1030300090E00E5F1F4FA401D0D0A82EA818FB2D42
:10304000FF77BF2EB6FE0BC02B2D2E7FA51450F49C
:10305000B4FE0AC0B2FC08C02B2D2E7E05C07A2C0F
:103060002B2D03C07A2C01C0752C24FF0DC0FE014E
:10307000EA0DF11D8081803311F4297E09C022FF01
:1030800006C07394739404C0822F867809F07394F9
:1030900023FD12C020FF06C05A2C731418F4530CE1
:1030A0005718732C731460F4B70180E290E02C87FA
:1030B00062D073942C85F6CF731410F4371801C0C6
:1030C000312C24FF11C0B70180E390E02C8753D04E
:1030D0002C8522FF16C021FF03C088E590E002C0C6
:1030E00088E790E0B7010CC0822F867851F021FD6F
:1030F00002C080E201C08BE227FD8DE2B70190E0C3
:103100003AD0A51430F4B70180E390E034D05A945B
:10311000F8CFAA94F401EA0DF11D8081B70190E087
:103120002AD0A110F6CF332009F45DCEB70180E29A
:1031300090E021D03A94F7CFF7018681978102C0C1
:103140008FEF9FEF2C96E2E1C2C0FC010590615029
:1031500070400110D8F7809590958E0F9F1F0895AD
:10316000FC016150704001900110D8F78095909556
:103170008E0F9F1F08950F931F93CF93DF93182FE8
:10318000092FEB018B8181FD03C08FEF9FEF20C0E2
:1031900082FF10C04E815F812C813D814217530711
:1031A0007CF4E881F9819F012F5F3F4F39832883A9
:1031B000108306C0E885F985812F0995892B29F7A9
:1031C0002E813F812F5F3F4F3F832E83812F902F92
:1031D000DF91CF911F910F910895FA01AA2728300E
:1031E00051F1203181F1E8946F936E7F6E5F7F4FD4
:1031F0008F4F9F4FAF4FB1E03ED0B4E03CD0670F50
:10320000781F891F9A1FA11D680F791F8A1F911DA2
:10321000A11D6A0F711D811D911DA11D20D009F4F2
:1032200068943F912AE0269F11243019305D319334
:10323000DEF6CF010895462F4770405D4193B3E01D
:103240000FD0C9F7F6CF462F4F70405D4A3318F0C4
:10325000495D31FD4052419302D0A9F7EACFB4E075
:10326000A6959795879577956795BA95C9F700972D
:103270006105710508959B01AC010A2E06945795CE
:10328000479537952795BA95C9F7620F731F841F25
:10329000951FA01D08952F923F924F925F926F92BB
:1032A0007F928F929F92AF92BF92CF92DF92EF92D6
:1032B000FF920F931F93CF93DF93CDB7DEB7CA1B57
:1032C000DB0B0FB6F894DEBF0FBECDBF09942A8882
:1032D000398848885F846E847D848C849B84AA842A
:1032E000B984C884DF80EE80FD800C811B81AA81B7
:1032F000B981CE0FD11D0FB6F894DEBF0FBECDBF82
:08330000ED010895F894FFCFE0
:1033080000000002000000000D0100000000028122
:1033180008000001190608000000000000000083F2
:1033280010000001041000000182080000010000E4
:10333800000000000000000000307830300000007D
:10334800A60620004C4344206572726F723A20250D
:10335800780A004469676974697A657220657272CF
:103368006F723A2025780A00736574206469737057
:103378006C6179206F6E0073657420646973706C7A
:103388006179206F666600736574206261636B6C97
:1033980069676874200056616C7565206F757420C4
:1033A8006F662072616E67653A2025642E2056612B
:1033B8006C69642072616E676520697320302074BF
:1033C8006F203235350A00556E6B6E6F776E20634D
:1033D8006F6D616E64004C697374206F6620636F53
:1033E8006D6D616E64733A00736574206261636B1E
:1033F8006C69676874203C302E2E3235353E007378
:10340800657420646973706C6179203C6F6E2F6FEE
:1034180066663E004465627567206973206F6E00BA
:10342800496E666F726D6174696F6E20426C6F636E
:103438006B20435243206D69736D617463683A2051
:103448002530366C7820213D202530366C780A00EE
:10345800496E76616C6964206F626A656374207472
:10346800797065005B25755D2025632563256325D7
:1034780063256325632563256320783A2025357500
:1034880020793A2025357520617265613A20253307
:103498007520616D703A2025337520766563746FE9
:1034A800723A205B25642C25645D0A005F5F6D78A5
:1034B800745F77726974655F726567282920666131
:1034C800696C65643A20253034780A004E6F2063B1
:1034D8006667206461746120646566696E65642C42
:1034E80020736B697070696E672072656720696EFA
:1034F8006974004E6F7420656E6F75676820636F1E
:103508006E666967206461746121004661696C6553
:103518006420746F206170706C7920636F6E6669C7
:1035280067005F5F6D78745F726561645F7265677D
:1035380028253034782C20253034782C2025303438
:103548007829206661696C65643A20253034780AE8
:10355800004661696C656420746F2072656164203F
:103568002575206D65737361676573202825642947
:103578002E0A005374617475733A2025303278200E
:10358800436F6E66696720436865636B73756D3A50
:10359800202530386C780A004661696C65642074AF
:1035A8006F2072656164206D657373616765206360
:1035B8006F756E7420282564292E0A0050726F6377
:1035C800657373696E67202564206D657373616721
:1035D80065730A004469676974697A65722069735A
:1035E800206E6F7420696E69746C69616C697A65A4
:1035F80064203D2025780A004661696C6564207462
:103608006F20676574204469676974697A657220F8
:103618007265706F72742E20457272203D20257875
:103628000A00496E666F726D6174696F6E20426C34
:103638006F636B20436865636B73756D203D202550
:1036480030366C780A0054797065202532642C2055
:10365800005374617274202533642C200053697AF6
:1036680065202533642C2000496E7374616E636590
:1036780073202532752C20005265706F727449448E
:103688007320253375203A202533750A0046616971
:103698006C656420746F20616C6C6F636174652065
:1036A8006D656D6F72790046616D696C792049446A
:1036B8003A2025752056617269616E742049443A32
:1036C800202575204D616A6F722E4D696E6F722EBE
:1036D8004275696C643A2025752E25752E25303281
:1036E800580A004D617472697820582053697A65C8
:1036F8003A202575204D61747269782059205369E4
:103708007A653A202575204F626A656374204E7584
:103718006D3A2025750A004661696C656420746FEE
:1037280020616C6C6F63617465206D656D6F727973
:1037380020666F722070646174610063616C6C69EB
:103748006E67206D78745F696E697469616C697AF7
:103758006500556E61626C6520746F20696E6974CE
:10376800696C697A65205450006572726F72206DB9
:10377800616B696E67206465766963652072657040
:0C3788006F7274207374617475732E00EE
:00000001FF
